{
  "contractName": "DeclareAnimal",
  "abi": [
    {
      "inputs": [],
      "payable": false,
      "stateMutability": "nonpayable",
      "type": "constructor"
    },
    {
      "anonymous": false,
      "inputs": [
        {
          "indexed": true,
          "internalType": "address",
          "name": "previousOwner",
          "type": "address"
        },
        {
          "indexed": true,
          "internalType": "address",
          "name": "newOwner",
          "type": "address"
        }
      ],
      "name": "OwnershipTransferred",
      "type": "event"
    },
    {
      "constant": true,
      "inputs": [
        {
          "internalType": "uint256",
          "name": "",
          "type": "uint256"
        }
      ],
      "name": "animalToOwner",
      "outputs": [
        {
          "internalType": "address",
          "name": "",
          "type": "address"
        }
      ],
      "payable": false,
      "stateMutability": "view",
      "type": "function"
    },
    {
      "constant": true,
      "inputs": [
        {
          "internalType": "uint256",
          "name": "",
          "type": "uint256"
        }
      ],
      "name": "animals",
      "outputs": [
        {
          "internalType": "string",
          "name": "name",
          "type": "string"
        },
        {
          "internalType": "string",
          "name": "species",
          "type": "string"
        },
        {
          "internalType": "uint256",
          "name": "dna",
          "type": "uint256"
        },
        {
          "internalType": "string",
          "name": "color",
          "type": "string"
        },
        {
          "internalType": "uint256",
          "name": "size",
          "type": "uint256"
        }
      ],
      "payable": false,
      "stateMutability": "view",
      "type": "function"
    },
    {
      "constant": true,
      "inputs": [
        {
          "internalType": "uint256",
          "name": "",
          "type": "uint256"
        }
      ],
      "name": "auctions",
      "outputs": [
        {
          "internalType": "uint256",
          "name": "animalId",
          "type": "uint256"
        },
        {
          "internalType": "address payable",
          "name": "owner",
          "type": "address"
        },
        {
          "internalType": "uint256",
          "name": "currentPrice",
          "type": "uint256"
        },
        {
          "internalType": "address payable",
          "name": "lastBidder",
          "type": "address"
        },
        {
          "internalType": "uint256",
          "name": "startTime",
          "type": "uint256"
        }
      ],
      "payable": false,
      "stateMutability": "view",
      "type": "function"
    },
    {
      "constant": true,
      "inputs": [],
      "name": "myAdress",
      "outputs": [
        {
          "internalType": "string",
          "name": "",
          "type": "string"
        }
      ],
      "payable": false,
      "stateMutability": "view",
      "type": "function"
    },
    {
      "constant": true,
      "inputs": [],
      "name": "owner",
      "outputs": [
        {
          "internalType": "address",
          "name": "",
          "type": "address"
        }
      ],
      "payable": false,
      "stateMutability": "view",
      "type": "function"
    },
    {
      "constant": false,
      "inputs": [
        {
          "internalType": "address",
          "name": "newOwner",
          "type": "address"
        }
      ],
      "name": "transferOwnership",
      "outputs": [],
      "payable": false,
      "stateMutability": "nonpayable",
      "type": "function"
    },
    {
      "constant": true,
      "inputs": [
        {
          "internalType": "uint256",
          "name": "",
          "type": "uint256"
        }
      ],
      "name": "whitelist",
      "outputs": [
        {
          "internalType": "address",
          "name": "",
          "type": "address"
        }
      ],
      "payable": false,
      "stateMutability": "view",
      "type": "function"
    },
    {
      "constant": true,
      "inputs": [
        {
          "internalType": "address",
          "name": "_adress",
          "type": "address"
        }
      ],
      "name": "inWhiteList",
      "outputs": [
        {
          "internalType": "bool",
          "name": "",
          "type": "bool"
        }
      ],
      "payable": false,
      "stateMutability": "view",
      "type": "function"
    },
    {
      "constant": false,
      "inputs": [
        {
          "internalType": "string",
          "name": "_name",
          "type": "string"
        },
        {
          "internalType": "string",
          "name": "_species",
          "type": "string"
        },
        {
          "internalType": "uint256",
          "name": "_dna",
          "type": "uint256"
        },
        {
          "internalType": "string",
          "name": "_color",
          "type": "string"
        },
        {
          "internalType": "uint256",
          "name": "_size",
          "type": "uint256"
        }
      ],
      "name": "_createAnimal",
      "outputs": [],
      "payable": false,
      "stateMutability": "nonpayable",
      "type": "function"
    },
    {
      "constant": false,
      "inputs": [
        {
          "internalType": "uint256",
          "name": "_id",
          "type": "uint256"
        }
      ],
      "name": "deadAnimal",
      "outputs": [],
      "payable": false,
      "stateMutability": "nonpayable",
      "type": "function"
    },
    {
      "constant": false,
      "inputs": [
        {
          "internalType": "uint256",
          "name": "_id1",
          "type": "uint256"
        },
        {
          "internalType": "uint256",
          "name": "_id2",
          "type": "uint256"
        }
      ],
      "name": "breadAnimal",
      "outputs": [],
      "payable": false,
      "stateMutability": "nonpayable",
      "type": "function"
    },
    {
      "constant": false,
      "inputs": [
        {
          "internalType": "uint256",
          "name": "_animalId",
          "type": "uint256"
        },
        {
          "internalType": "uint256",
          "name": "depPrice",
          "type": "uint256"
        }
      ],
      "name": "createAuction",
      "outputs": [],
      "payable": false,
      "stateMutability": "nonpayable",
      "type": "function"
    },
    {
      "constant": false,
      "inputs": [
        {
          "internalType": "uint256",
          "name": "bid",
          "type": "uint256"
        },
        {
          "internalType": "uint256",
          "name": "auctionId",
          "type": "uint256"
        }
      ],
      "name": "bidOnAuction",
      "outputs": [],
      "payable": false,
      "stateMutability": "nonpayable",
      "type": "function"
    },
    {
      "constant": false,
      "inputs": [
        {
          "internalType": "uint256",
          "name": "auctionId",
          "type": "uint256"
        }
      ],
      "name": "claimAuction",
      "outputs": [],
      "payable": false,
      "stateMutability": "nonpayable",
      "type": "function"
    }
  ],
  "bytecode": "0x608060405260405180602001604052806000815250600290805190602001906200002b92919062000080565b503480156200003957600080fd5b50336000806101000a81548173ffffffffffffffffffffffffffffffffffffffff021916908373ffffffffffffffffffffffffffffffffffffffff1602179055506200012f565b828054600181600116156101000203166002900490600052602060002090601f016020900481019282601f10620000c357805160ff1916838001178555620000f4565b82800160010185558215620000f4579182015b82811115620000f3578251825591602001919060010190620000d6565b5b50905062000103919062000107565b5090565b6200012c91905b80821115620001285760008160009055506001016200010e565b5090565b90565b611d01806200013f6000396000f3fe608060405234801561001057600080fd5b50600436106100ea5760003560e01c8063998dd3ca1161008c578063d81c513a11610066578063d81c513a1461059f578063ec9b6db91461060d578063f2fde38b1461063b578063f6e5b1c81461067f576100ea565b8063998dd3ca146103ac5780639aafc6c9146105395780639f63512014610567576100ea565b806369e0e346116100c857806369e0e346146102155780636ca14bfd146102715780637ebd1b30146102f45780638da5cb5b14610362576100ea565b80630121683f146100ef5780631849a2cf14610127578063571a26a01461015f575b600080fd5b6101256004803603604081101561010557600080fd5b81019080803590602001909291908035906020019092919050505061087c565b005b61015d6004803603604081101561013d57600080fd5b810190808035906020019092919080359060200190929190505050610a27565b005b61018b6004803603602081101561017557600080fd5b8101908080359060200190929190505050610f7f565b604051808681526020018573ffffffffffffffffffffffffffffffffffffffff1673ffffffffffffffffffffffffffffffffffffffff1681526020018481526020018373ffffffffffffffffffffffffffffffffffffffff1673ffffffffffffffffffffffffffffffffffffffff1681526020018281526020019550505050505060405180910390f35b6102576004803603602081101561022b57600080fd5b81019080803573ffffffffffffffffffffffffffffffffffffffff169060200190929190505050611002565b604051808215151515815260200191505060405180910390f35b6102796110a3565b6040518080602001828103825283818151815260200191508051906020019080838360005b838110156102b957808201518184015260208101905061029e565b50505050905090810190601f1680156102e65780820380516001836020036101000a031916815260200191505b509250505060405180910390f35b6103206004803603602081101561030a57600080fd5b8101908080359060200190929190505050611141565b604051808273ffffffffffffffffffffffffffffffffffffffff1673ffffffffffffffffffffffffffffffffffffffff16815260200191505060405180910390f35b61036a61117d565b604051808273ffffffffffffffffffffffffffffffffffffffff1673ffffffffffffffffffffffffffffffffffffffff16815260200191505060405180910390f35b6103d8600480360360208110156103c257600080fd5b81019080803590602001909291905050506111a2565b60405180806020018060200186815260200180602001858152602001848103845289818151815260200191508051906020019080838360005b8381101561042c578082015181840152602081019050610411565b50505050905090810190601f1680156104595780820380516001836020036101000a031916815260200191505b50848103835288818151815260200191508051906020019080838360005b83811015610492578082015181840152602081019050610477565b50505050905090810190601f1680156104bf5780820380516001836020036101000a031916815260200191505b50848103825286818151815260200191508051906020019080838360005b838110156104f85780820151818401526020810190506104dd565b50505050905090810190601f1680156105255780820380516001836020036101000a031916815260200191505b509850505050505050505060405180910390f35b6105656004803603602081101561054f57600080fd5b81019080803590602001909291905050506113ad565b005b61059d6004803603604081101561057d57600080fd5b81019080803590602001909291908035906020019092919050505061163e565b005b6105cb600480360360208110156105b557600080fd5b810190808035906020019092919050505061174a565b604051808273ffffffffffffffffffffffffffffffffffffffff1673ffffffffffffffffffffffffffffffffffffffff16815260200191505060405180910390f35b6106396004803603602081101561062357600080fd5b810190808035906020019092919050505061177d565b005b61067d6004803603602081101561065157600080fd5b81019080803573ffffffffffffffffffffffffffffffffffffffff1690602001909291905050506118e8565b005b61087a600480360360a081101561069557600080fd5b81019080803590602001906401000000008111156106b257600080fd5b8201836020820111156106c457600080fd5b803590602001918460018302840111640100000000831117156106e657600080fd5b91908080601f016020809104026020016040519081016040528093929190818152602001838380828437600081840152601f19601f8201169050808301925050505050505091929192908035906020019064010000000081111561074957600080fd5b82018360208201111561075b57600080fd5b8035906020019184600183028401116401000000008311171561077d57600080fd5b91908080601f016020809104026020016040519081016040528093929190818152602001838380828437600081840152601f19601f82011690508083019250505050505050919291929080359060200190929190803590602001906401000000008111156107ea57600080fd5b8201836020820111156107fc57600080fd5b8035906020019184600183028401116401000000008311171561081e57600080fd5b91908080601f016020809104026020016040519081016040528093929190818152602001838380828437600081840152601f19601f82011690508083019250505050505050919291929080359060200190929190505050611a39565b005b3373ffffffffffffffffffffffffffffffffffffffff166004600084815260200190815260200160002060009054906101000a900473ffffffffffffffffffffffffffffffffffffffff1673ffffffffffffffffffffffffffffffffffffffff16146108e757600080fd5b60004290506000600160066040518060a001604052808781526020013373ffffffffffffffffffffffffffffffffffffffff1681526020018681526020013373ffffffffffffffffffffffffffffffffffffffff16815260200185815250908060018154018082558091505090600182039060005260206000209060050201600090919290919091506000820151816000015560208201518160010160006101000a81548173ffffffffffffffffffffffffffffffffffffffff021916908373ffffffffffffffffffffffffffffffffffffffff1602179055506040820151816002015560608201518160030160006101000a81548173ffffffffffffffffffffffffffffffffffffffff021916908373ffffffffffffffffffffffffffffffffffffffff16021790555060808201518160040155505003905050505050565b3373ffffffffffffffffffffffffffffffffffffffff166004600084815260200190815260200160002060009054906101000a900473ffffffffffffffffffffffffffffffffffffffff1673ffffffffffffffffffffffffffffffffffffffff1614610a9257600080fd5b3373ffffffffffffffffffffffffffffffffffffffff166004600083815260200190815260200160002060009054906101000a900473ffffffffffffffffffffffffffffffffffffffff1673ffffffffffffffffffffffffffffffffffffffff1614610afd57600080fd5b60038181548110610b0a57fe5b90600052602060002090600502016001016040516020018080602001828103825283818154600181600116156101000203166002900481526020019150805460018160011615610100020316600290048015610ba75780601f10610b7c57610100808354040283529160200191610ba7565b820191906000526020600020905b815481529060010190602001808311610b8a57829003601f168201915b5050925050506040516020818303038152906040528051906020012060038381548110610bd057fe5b90600052602060002090600502016001016040516020018080602001828103825283818154600181600116156101000203166002900481526020019150805460018160011615610100020316600290048015610c6d5780601f10610c4257610100808354040283529160200191610c6d565b820191906000526020600020905b815481529060010190602001808311610c5057829003601f168201915b5050925050506040516020818303038152906040528051906020012014610c9357600080fd5b6060604051806020016040528060008152509050606060038481548110610cb657fe5b90600052602060002090600502016001018054600181600116156101000203166002900480601f016020809104026020016040519081016040528092919081815260200182805460018160011615610100020316600290048015610d5b5780601f10610d3057610100808354040283529160200191610d5b565b820191906000526020600020905b815481529060010190602001808311610d3e57829003601f168201915b505050505090506000600260038581548110610d7357fe5b90600052602060002090600502016002015460038781548110610d9257fe5b9060005260206000209060050201600201540181610dac57fe5b04905060606040518060400160405280600481526020017f626c7565000000000000000000000000000000000000000000000000000000008152509050600060038681548110610df857fe5b90600052602060002090600502016004015490506000600160036040518060a0016040528089815260200188815260200187815260200186815260200185815250908060018154018082558091505090600182039060005260206000209060050201600090919290919091506000820151816000019080519060200190610e80929190611bdf565b506020820151816001019080519060200190610e9d929190611bdf565b50604082015181600201556060820151816003019080519060200190610ec4929190611bdf565b50608082015181600401555050039050336004600083815260200190815260200160002060006101000a81548173ffffffffffffffffffffffffffffffffffffffff021916908373ffffffffffffffffffffffffffffffffffffffff160217905550600560003373ffffffffffffffffffffffffffffffffffffffff1673ffffffffffffffffffffffffffffffffffffffff168152602001908152602001600020600081548092919060010191905055505050505050505050565b60068181548110610f8c57fe5b90600052602060002090600502016000915090508060000154908060010160009054906101000a900473ffffffffffffffffffffffffffffffffffffffff16908060020154908060030160009054906101000a900473ffffffffffffffffffffffffffffffffffffffff16908060040154905085565b6000806000905060008090505b600180549050811015611099576001818154811061102957fe5b9060005260206000200160009054906101000a900473ffffffffffffffffffffffffffffffffffffffff1673ffffffffffffffffffffffffffffffffffffffff168473ffffffffffffffffffffffffffffffffffffffff16141561108c57600191505b808060010191505061100f565b5080915050919050565b60028054600181600116156101000203166002900480601f0160208091040260200160405190810160405280929190818152602001828054600181600116156101000203166002900480156111395780601f1061110e57610100808354040283529160200191611139565b820191906000526020600020905b81548152906001019060200180831161111c57829003601f168201915b505050505081565b6001818154811061114e57fe5b906000526020600020016000915054906101000a900473ffffffffffffffffffffffffffffffffffffffff1681565b6000809054906101000a900473ffffffffffffffffffffffffffffffffffffffff1681565b600381815481106111af57fe5b9060005260206000209060050201600091509050806000018054600181600116156101000203166002900480601f01602080910402602001604051908101604052809291908181526020018280546001816001161561010002031660029004801561125b5780601f106112305761010080835404028352916020019161125b565b820191906000526020600020905b81548152906001019060200180831161123e57829003601f168201915b505050505090806001018054600181600116156101000203166002900480601f0160208091040260200160405190810160405280929190818152602001828054600181600116156101000203166002900480156112f95780601f106112ce576101008083540402835291602001916112f9565b820191906000526020600020905b8154815290600101906020018083116112dc57829003601f168201915b505050505090806002015490806003018054600181600116156101000203166002900480601f01602080910402602001604051908101604052809291908181526020018280546001816001161561010002031660029004801561139d5780601f106113725761010080835404028352916020019161139d565b820191906000526020600020905b81548152906001019060200180831161138057829003601f168201915b5050505050908060040154905085565b3373ffffffffffffffffffffffffffffffffffffffff16600682815481106113d157fe5b906000526020600020906005020160030160009054906101000a900473ffffffffffffffffffffffffffffffffffffffff1673ffffffffffffffffffffffffffffffffffffffff161461142357600080fd5b60006114596202a3006006848154811061143957fe5b906000526020600020906005020160040154611bc390919063ffffffff16565b905033600460006006858154811061146d57fe5b906000526020600020906005020160000154815260200190815260200160002060006101000a81548173ffffffffffffffffffffffffffffffffffffffff021916908373ffffffffffffffffffffffffffffffffffffffff160217905550600560003373ffffffffffffffffffffffffffffffffffffffff1673ffffffffffffffffffffffffffffffffffffffff16815260200190815260200160002060008154809291906001019190505550600560006006848154811061152b57fe5b906000526020600020906005020160010160009054906101000a900473ffffffffffffffffffffffffffffffffffffffff1673ffffffffffffffffffffffffffffffffffffffff1673ffffffffffffffffffffffffffffffffffffffff1681526020019081526020016000206000815480929190600190039190505550600682815481106115b557fe5b906000526020600020906005020160010160009054906101000a900473ffffffffffffffffffffffffffffffffffffffff1673ffffffffffffffffffffffffffffffffffffffff166108fc6006848154811061160d57fe5b9060005260206000209060050201600201549081150290604051600060405180830381858888f19350505050505050565b6001151561164b33611002565b15151461165757600080fd5b600061168d6202a3006006848154811061166d57fe5b906000526020600020906005020160040154611bc390919063ffffffff16565b905042811061169b57600080fd5b600682815481106116a857fe5b90600052602060002090600502016002015483116116c557600080fd5b82600683815481106116d357fe5b90600052602060002090600502016002018190555033600683815481106116f657fe5b906000526020600020906005020160030160006101000a81548173ffffffffffffffffffffffffffffffffffffffff021916908373ffffffffffffffffffffffffffffffffffffffff160217905550505050565b60046020528060005260406000206000915054906101000a900473ffffffffffffffffffffffffffffffffffffffff1681565b6001151561178a33611002565b15151461179657600080fd5b3373ffffffffffffffffffffffffffffffffffffffff166004600083815260200190815260200160002060009054906101000a900473ffffffffffffffffffffffffffffffffffffffff1673ffffffffffffffffffffffffffffffffffffffff161461180157600080fd5b6004600082815260200190815260200160002060006101000a81549073ffffffffffffffffffffffffffffffffffffffff0219169055600560003373ffffffffffffffffffffffffffffffffffffffff1673ffffffffffffffffffffffffffffffffffffffff16815260200190815260200160002060008154809291906001900391905055506003818154811061189457fe5b9060005260206000209060050201600080820160006118b39190611c5f565b6001820160006118c39190611c5f565b60028201600090556003820160006118db9190611c5f565b6004820160009055505050565b6000809054906101000a900473ffffffffffffffffffffffffffffffffffffffff1673ffffffffffffffffffffffffffffffffffffffff163373ffffffffffffffffffffffffffffffffffffffff161461194157600080fd5b600073ffffffffffffffffffffffffffffffffffffffff168173ffffffffffffffffffffffffffffffffffffffff16141561197b57600080fd5b8073ffffffffffffffffffffffffffffffffffffffff166000809054906101000a900473ffffffffffffffffffffffffffffffffffffffff1673ffffffffffffffffffffffffffffffffffffffff167f8be0079c531659141344cd1fd0a4f28419497f9722a3daafe3b4186f6b6457e060405160405180910390a3806000806101000a81548173ffffffffffffffffffffffffffffffffffffffff021916908373ffffffffffffffffffffffffffffffffffffffff16021790555050565b60011515611a4633611002565b151514611a5257600080fd5b6000600160036040518060a0016040528089815260200188815260200187815260200186815260200185815250908060018154018082558091505090600182039060005260206000209060050201600090919290919091506000820151816000019080519060200190611ac6929190611bdf565b506020820151816001019080519060200190611ae3929190611bdf565b50604082015181600201556060820151816003019080519060200190611b0a929190611bdf565b50608082015181600401555050039050336004600083815260200190815260200160002060006101000a81548173ffffffffffffffffffffffffffffffffffffffff021916908373ffffffffffffffffffffffffffffffffffffffff160217905550600560003373ffffffffffffffffffffffffffffffffffffffff1673ffffffffffffffffffffffffffffffffffffffff16815260200190815260200160002060008154809291906001019190505550505050505050565b600080828401905083811015611bd557fe5b8091505092915050565b828054600181600116156101000203166002900490600052602060002090601f016020900481019282601f10611c2057805160ff1916838001178555611c4e565b82800160010185558215611c4e579182015b82811115611c4d578251825591602001919060010190611c32565b5b509050611c5b9190611ca7565b5090565b50805460018160011615610100020316600290046000825580601f10611c855750611ca4565b601f016020900490600052602060002090810190611ca39190611ca7565b5b50565b611cc991905b80821115611cc5576000816000905550600101611cad565b5090565b9056fea265627a7a7231582072f07e0634eedd9018311a12b4bad24652c7a3a54095938188463404d4c8cdc364736f6c63430005100032",
  "source": "pragma solidity ^0.5.2;\r\n\r\nimport \"./Ownable.sol\";\r\nimport \"./ERC721.sol\";\r\nimport \"./safemath.sol\";\r\n\r\n\r\ncontract DeclareAnimal is Ownable{\r\n    \r\n    using SafeMath for uint256;\r\n    address[] public whitelist;\r\n    string public myAdress = \"\";\r\n    \r\n  constructor() public{}\r\n\r\n    function registerBreeder(address _adress) private{\r\n        require(keccak256(abi.encode(msg.sender)) == keccak256(abi.encode(myAdress)));\r\n        whitelist.push(_adress);\r\n    }\r\n    \r\n    function inWhiteList(address _adress) public view returns(bool){\r\n        bool presence = false;\r\n        for(uint i = 0; i < whitelist.length; i++){\r\n    \r\n            if(_adress == whitelist[i])\r\n            {\r\n                presence = true;\r\n            }\r\n        }\r\n    return presence;\r\n    }\r\n    \r\n    struct Animal{\r\n        string name;\r\n        string species;\r\n        uint dna;\r\n        string color;\r\n        uint size;\r\n    }\r\n    \r\n    Animal[] public animals;\r\n    \r\n    mapping (uint => address) public animalToOwner;\r\n    mapping (address => uint) ownerAnimalCount;\r\n    \r\n    function _createAnimal(string memory _name, string memory _species, uint _dna, string memory _color, uint _size) public {\r\n        require(inWhiteList(msg.sender) == true);\r\n        uint id  = animals.push(Animal(_name, _species, _dna, _color, _size)) - 1;\r\n        animalToOwner[id] = msg.sender;\r\n        ownerAnimalCount[msg.sender]++;\r\n    }\r\n    \r\n    function deadAnimal(uint _id) public {\r\n        require(inWhiteList(msg.sender) == true);\r\n        require(animalToOwner[_id] == msg.sender);\r\n        delete animalToOwner[_id];\r\n        ownerAnimalCount[msg.sender] --;\r\n        delete animals[_id];\r\n    }\r\n    \r\n    function breadAnimal(uint _id1, uint _id2) public{\r\n        require(animalToOwner[_id1] == msg.sender);\r\n        require(animalToOwner[_id2] == msg.sender);\r\n        require(keccak256(abi.encode(animals[_id1].species)) == keccak256(abi.encode(animals[_id2].species)));\r\n        string memory newName = \"\";\r\n        string memory newSpecies = animals[_id1].species;\r\n        uint newDna = (animals[_id1].dna + animals[_id2].dna) / 2;\r\n        string memory newColor = \"blue\";\r\n        uint newSize = animals[_id2].size;\r\n        uint id  = animals.push(Animal(newName, newSpecies, newDna, newColor, newSize)) - 1;\r\n        animalToOwner[id] = msg.sender;\r\n        ownerAnimalCount[msg.sender]++;\r\n    }\r\n    \r\n    struct Auction{\r\n        uint animalId;\r\n        address payable owner;\r\n        uint currentPrice;\r\n        address payable lastBidder;\r\n        uint256 startTime; \r\n    }\r\n    \r\n    uint256 constant days_2 = 2*24*60*60;\r\n    \r\n    Auction[] public auctions;\r\n    \r\n    function createAuction(uint _animalId, uint depPrice) public {\r\n        require(animalToOwner[_animalId] == msg.sender);\r\n        uint256 _startTime = now;\r\n        uint id  = auctions.push(Auction(_animalId, msg.sender, depPrice, msg.sender, _startTime)) - 1;\r\n    }\r\n    \r\n    function bidOnAuction(uint bid, uint auctionId) public{\r\n        require(inWhiteList(msg.sender) == true);\r\n        uint256 endsTime = auctions[auctionId].startTime.add(days_2) ;\r\n        require(endsTime < now);\r\n        require(bid > auctions[auctionId].currentPrice);\r\n        auctions[auctionId].currentPrice = bid;\r\n        auctions[auctionId].lastBidder = msg.sender; \r\n    }\r\n    \r\n    function claimAuction(uint auctionId) public {\r\n        require(auctions[auctionId].lastBidder == msg.sender);\r\n        uint256 endsTime = auctions[auctionId].startTime.add(days_2) ;\r\n        //require(endsTime > now);\r\n        //require(msg.value == auctions[auctionId].currentPrice);\r\n        animalToOwner[auctions[auctionId].animalId] = msg.sender;\r\n        ownerAnimalCount[msg.sender] ++;\r\n        ownerAnimalCount[auctions[auctionId].owner] --;\r\n        auctions[auctionId].owner.send(auctions[auctionId].currentPrice);\r\n    }\r\n    \r\n    modifier onlyOwnerOf(uint _animalId) {\r\n    require(msg.sender == animalToOwner[_animalId]);\r\n    _;\r\n  }\r\n    \r\n}",
  "sourcePath": "C:\\Users\\mattd\\BC6\\contracts\\DeclareAnimal.sol",
  "compiler": {
    "name": "solc",
    "version": "0.5.16+commit.9c3226ce.Emscripten.clang"
  },
  "schemaVersion": "3.0.23",
  "updatedAt": "2020-03-09T10:08:56.915Z",
  "networkType": "ethereum",
  "devdoc": {
    "methods": {
      "transferOwnership(address)": {
        "details": "Allows the current owner to transfer control of the contract to a newOwner.",
        "params": {
          "newOwner": "The address to transfer ownership to."
        }
      }
    }
  },
  "userdoc": {
    "methods": {}
  }
}